{
  "_format": "hh3-artifact-1",
  "contractName": "Counter",
  "sourceName": "contracts/Counter.sol",
  "abi": [
    {
      "inputs": [],
      "name": "inc",
      "outputs": [],
      "stateMutability": "nonpayable",
      "type": "function"
    },
    {
      "inputs": [],
      "name": "x",
      "outputs": [
        {
          "internalType": "uint256",
          "name": "",
          "type": "uint256"
        }
      ],
      "stateMutability": "view",
      "type": "function"
    }
  ],
  "bytecode": "0x608060405234801561000f575f80fd5b506101588061001d5f395ff3fe608060405234801561000f575f80fd5b5060043610610034575f3560e01c80630c55699c14610038578063371303c014610056575b5f80fd5b610040610060565b60405161004d9190610095565b60405180910390f35b61005e610065565b005b5f5481565b5f80815480929190610076906100db565b9190505550565b5f819050919050565b61008f8161007d565b82525050565b5f6020820190506100a85f830184610086565b92915050565b7f4e487b71000000000000000000000000000000000000000000000000000000005f52601160045260245ffd5b5f6100e58261007d565b91507fffffffffffffffffffffffffffffffffffffffffffffffffffffffffffffffff8203610117576101166100ae565b5b60018201905091905056fea2646970667358221220802ddba409629da993c37ba6a08236786117da1b831f5c432d2f4816883fa71464736f6c63430008180033",
  "linkReferences": {},
  "deployedLinkReferences": {},
  "immutableReferences": {},
  "inputSourceName": "contracts/Counter.sol",
  "buildInfoId": "027e4acd8bde4214dafd06e1d0afa5fa"
}